{
  "_format": "hh-sol-artifact-1",
  "contractName": "TaskManager",
  "sourceName": "contracts/TaskManager.sol",
  "abi": [
    {
      "inputs": [],
      "stateMutability": "nonpayable",
      "type": "constructor"
    },
    {
      "inputs": [
        {
          "internalType": "address",
          "name": "owner",
          "type": "address"
        }
      ],
      "name": "OwnableInvalidOwner",
      "type": "error"
    },
    {
      "inputs": [
        {
          "internalType": "address",
          "name": "account",
          "type": "address"
        }
      ],
      "name": "OwnableUnauthorizedAccount",
      "type": "error"
    },
    {
      "anonymous": false,
      "inputs": [
        {
          "indexed": true,
          "internalType": "address",
          "name": "previousOwner",
          "type": "address"
        },
        {
          "indexed": true,
          "internalType": "address",
          "name": "newOwner",
          "type": "address"
        }
      ],
      "name": "OwnershipTransferred",
      "type": "event"
    },
    {
      "inputs": [
        {
          "internalType": "string",
          "name": "_title",
          "type": "string"
        },
        {
          "internalType": "string",
          "name": "_descriptin",
          "type": "string"
        }
      ],
      "name": "addTask",
      "outputs": [],
      "stateMutability": "nonpayable",
      "type": "function"
    },
    {
      "inputs": [
        {
          "internalType": "uint256",
          "name": "_taskId",
          "type": "uint256"
        }
      ],
      "name": "deleteTask",
      "outputs": [],
      "stateMutability": "nonpayable",
      "type": "function"
    },
    {
      "inputs": [],
      "name": "getTasks",
      "outputs": [
        {
          "components": [
            {
              "internalType": "uint256",
              "name": "id",
              "type": "uint256"
            },
            {
              "internalType": "string",
              "name": "title",
              "type": "string"
            },
            {
              "internalType": "string",
              "name": "descriptin",
              "type": "string"
            },
            {
              "internalType": "bool",
              "name": "completed",
              "type": "bool"
            },
            {
              "internalType": "address",
              "name": "owner",
              "type": "address"
            }
          ],
          "internalType": "struct TaskManager.Task[]",
          "name": "",
          "type": "tuple[]"
        }
      ],
      "stateMutability": "view",
      "type": "function"
    },
    {
      "inputs": [],
      "name": "owner",
      "outputs": [
        {
          "internalType": "address",
          "name": "",
          "type": "address"
        }
      ],
      "stateMutability": "view",
      "type": "function"
    },
    {
      "inputs": [],
      "name": "renounceOwnership",
      "outputs": [],
      "stateMutability": "nonpayable",
      "type": "function"
    },
    {
      "inputs": [],
      "name": "resetTasks",
      "outputs": [],
      "stateMutability": "nonpayable",
      "type": "function"
    },
    {
      "inputs": [
        {
          "internalType": "address",
          "name": "newOwner",
          "type": "address"
        }
      ],
      "name": "transferOwnership",
      "outputs": [],
      "stateMutability": "nonpayable",
      "type": "function"
    },
    {
      "inputs": [
        {
          "internalType": "uint256",
          "name": "_taskId",
          "type": "uint256"
        },
        {
          "internalType": "string",
          "name": "_title",
          "type": "string"
        },
        {
          "internalType": "bool",
          "name": "_completed",
          "type": "bool"
        }
      ],
      "name": "updateTask",
      "outputs": [],
      "stateMutability": "nonpayable",
      "type": "function"
    }
  ],
  "bytecode": "0x608060405234801561001057600080fd5b5033600073ffffffffffffffffffffffffffffffffffffffff168173ffffffffffffffffffffffffffffffffffffffff16036100845760006040517f1e4fbdf700000000000000000000000000000000000000000000000000000000815260040161007b919061019e565b60405180910390fd5b6100938161009960201b60201c565b506101b9565b60008060009054906101000a900473ffffffffffffffffffffffffffffffffffffffff169050816000806101000a81548173ffffffffffffffffffffffffffffffffffffffff021916908373ffffffffffffffffffffffffffffffffffffffff1602179055508173ffffffffffffffffffffffffffffffffffffffff168173ffffffffffffffffffffffffffffffffffffffff167f8be0079c531659141344cd1fd0a4f28419497f9722a3daafe3b4186f6b6457e060405160405180910390a35050565b600073ffffffffffffffffffffffffffffffffffffffff82169050919050565b60006101888261015d565b9050919050565b6101988161017d565b82525050565b60006020820190506101b3600083018461018f565b92915050565b6114ec806101c86000396000f3fe608060405234801561001057600080fd5b50600436106100875760003560e01c8063715018a61161005b578063715018a6146100ec5780638da5cb5b146100f6578063b37b100014610114578063f2fde38b1461013057610087565b8062d5c4771461008c57806304a87e38146100a857806326c0d202146100c6578063560f3192146100d0575b600080fd5b6100a660048036038101906100a19190610c73565b61014c565b005b6100b061023d565b6040516100bd9190610eff565b60405180910390f35b6100ce610542565b005b6100ea60048036038101906100e59190610f21565b610554565b005b6100f4610676565b005b6100fe61068a565b60405161010b9190610f5d565b60405180910390f35b61012e60048036038101906101299190610f78565b6106b3565b005b61014a6004803603810190610145919061101c565b61082e565b005b823373ffffffffffffffffffffffffffffffffffffffff166002600083815260200190815260200160002060030160019054906101000a900473ffffffffffffffffffffffffffffffffffffffff1673ffffffffffffffffffffffffffffffffffffffff16146101f1576040517f08c379a00000000000000000000000000000000000000000000000000000000081526004016101e8906110a6565b60405180910390fd5b60006002600086815260200190815260200160002090508381600101908161021991906112d2565b50828160030160006101000a81548160ff0219169083151502179055505050505050565b60606000600360003373ffffffffffffffffffffffffffffffffffffffff1673ffffffffffffffffffffffffffffffffffffffff168152602001908152602001600020905060008180549050116102c9576040517f08c379a00000000000000000000000000000000000000000000000000000000081526004016102c0906113f0565b60405180910390fd5b6000818054905067ffffffffffffffff8111156102e9576102e8610b10565b5b60405190808252806020026020018201604052801561032257816020015b61030f610a07565b8152602001906001900390816103075790505b50905060005b8280549050811015610539576002600084838154811061034b5761034a611410565b5b906000526020600020015481526020019081526020016000206040518060a001604052908160008201548152602001600182018054610389906110f5565b80601f01602080910402602001604051908101604052809291908181526020018280546103b5906110f5565b80156104025780601f106103d757610100808354040283529160200191610402565b820191906000526020600020905b8154815290600101906020018083116103e557829003601f168201915b5050505050815260200160028201805461041b906110f5565b80601f0160208091040260200160405190810160405280929190818152602001828054610447906110f5565b80156104945780601f1061046957610100808354040283529160200191610494565b820191906000526020600020905b81548152906001019060200180831161047757829003601f168201915b505050505081526020016003820160009054906101000a900460ff161515151581526020016003820160019054906101000a900473ffffffffffffffffffffffffffffffffffffffff1673ffffffffffffffffffffffffffffffffffffffff1673ffffffffffffffffffffffffffffffffffffffff168152505082828151811061052157610520611410565b5b60200260200101819052508080600101915050610328565b50809250505090565b61054a6108b4565b6000600181905550565b803373ffffffffffffffffffffffffffffffffffffffff166002600083815260200190815260200160002060030160019054906101000a900473ffffffffffffffffffffffffffffffffffffffff1673ffffffffffffffffffffffffffffffffffffffff16146105f9576040517f08c379a00000000000000000000000000000000000000000000000000000000081526004016105f0906110a6565b60405180910390fd5b600260008381526020019081526020016000206000808201600090556001820160006106259190610a4e565b6002820160006106359190610a4e565b6003820160006101000a81549060ff02191690556003820160016101000a81549073ffffffffffffffffffffffffffffffffffffffff021916905550505050565b61067e6108b4565b610688600061093b565b565b60008060009054906101000a900473ffffffffffffffffffffffffffffffffffffffff16905090565b6040518060a0016040528060015481526020018381526020018281526020016000151581526020013373ffffffffffffffffffffffffffffffffffffffff1681525060026000600154815260200190815260200160002060008201518160000155602082015181600101908161072991906112d2565b50604082015181600201908161073f91906112d2565b5060608201518160030160006101000a81548160ff02191690831515021790555060808201518160030160016101000a81548173ffffffffffffffffffffffffffffffffffffffff021916908373ffffffffffffffffffffffffffffffffffffffff160217905550905050600360003373ffffffffffffffffffffffffffffffffffffffff1673ffffffffffffffffffffffffffffffffffffffff1681526020019081526020016000206001549080600181540180825580915050600190039060005260206000200160009091909190915055600160008154809291906108259061146e565b91905055505050565b6108366108b4565b600073ffffffffffffffffffffffffffffffffffffffff168173ffffffffffffffffffffffffffffffffffffffff16036108a85760006040517f1e4fbdf700000000000000000000000000000000000000000000000000000000815260040161089f9190610f5d565b60405180910390fd5b6108b18161093b565b50565b6108bc6109ff565b73ffffffffffffffffffffffffffffffffffffffff166108da61068a565b73ffffffffffffffffffffffffffffffffffffffff1614610939576108fd6109ff565b6040517f118cdaa70000000000000000000000000000000000000000000000000000000081526004016109309190610f5d565b60405180910390fd5b565b60008060009054906101000a900473ffffffffffffffffffffffffffffffffffffffff169050816000806101000a81548173ffffffffffffffffffffffffffffffffffffffff021916908373ffffffffffffffffffffffffffffffffffffffff1602179055508173ffffffffffffffffffffffffffffffffffffffff168173ffffffffffffffffffffffffffffffffffffffff167f8be0079c531659141344cd1fd0a4f28419497f9722a3daafe3b4186f6b6457e060405160405180910390a35050565b600033905090565b6040518060a00160405280600081526020016060815260200160608152602001600015158152602001600073ffffffffffffffffffffffffffffffffffffffff1681525090565b508054610a5a906110f5565b6000825580601f10610a6c5750610a8b565b601f016020900490600052602060002090810190610a8a9190610a8e565b5b50565b5b80821115610aa7576000816000905550600101610a8f565b5090565b6000604051905090565b600080fd5b600080fd5b6000819050919050565b610ad281610abf565b8114610add57600080fd5b50565b600081359050610aef81610ac9565b92915050565b600080fd5b600080fd5b6000601f19601f8301169050919050565b7f4e487b7100000000000000000000000000000000000000000000000000000000600052604160045260246000fd5b610b4882610aff565b810181811067ffffffffffffffff82111715610b6757610b66610b10565b5b80604052505050565b6000610b7a610aab565b9050610b868282610b3f565b919050565b600067ffffffffffffffff821115610ba657610ba5610b10565b5b610baf82610aff565b9050602081019050919050565b82818337600083830152505050565b6000610bde610bd984610b8b565b610b70565b905082815260208101848484011115610bfa57610bf9610afa565b5b610c05848285610bbc565b509392505050565b600082601f830112610c2257610c21610af5565b5b8135610c32848260208601610bcb565b91505092915050565b60008115159050919050565b610c5081610c3b565b8114610c5b57600080fd5b50565b600081359050610c6d81610c47565b92915050565b600080600060608486031215610c8c57610c8b610ab5565b5b6000610c9a86828701610ae0565b935050602084013567ffffffffffffffff811115610cbb57610cba610aba565b5b610cc786828701610c0d565b9250506040610cd886828701610c5e565b9150509250925092565b600081519050919050565b600082825260208201905092915050565b6000819050602082019050919050565b610d1781610abf565b82525050565b600081519050919050565b600082825260208201905092915050565b60005b83811015610d57578082015181840152602081019050610d3c565b60008484015250505050565b6000610d6e82610d1d565b610d788185610d28565b9350610d88818560208601610d39565b610d9181610aff565b840191505092915050565b610da581610c3b565b82525050565b600073ffffffffffffffffffffffffffffffffffffffff82169050919050565b6000610dd682610dab565b9050919050565b610de681610dcb565b82525050565b600060a083016000830151610e046000860182610d0e565b5060208301518482036020860152610e1c8282610d63565b91505060408301518482036040860152610e368282610d63565b9150506060830151610e4b6060860182610d9c565b506080830151610e5e6080860182610ddd565b508091505092915050565b6000610e758383610dec565b905092915050565b6000602082019050919050565b6000610e9582610ce2565b610e9f8185610ced565b935083602082028501610eb185610cfe565b8060005b85811015610eed5784840389528151610ece8582610e69565b9450610ed983610e7d565b925060208a01995050600181019050610eb5565b50829750879550505050505092915050565b60006020820190508181036000830152610f198184610e8a565b905092915050565b600060208284031215610f3757610f36610ab5565b5b6000610f4584828501610ae0565b91505092915050565b610f5781610dcb565b82525050565b6000602082019050610f726000830184610f4e565b92915050565b60008060408385031215610f8f57610f8e610ab5565b5b600083013567ffffffffffffffff811115610fad57610fac610aba565b5b610fb985828601610c0d565b925050602083013567ffffffffffffffff811115610fda57610fd9610aba565b5b610fe685828601610c0d565b9150509250929050565b610ff981610dcb565b811461100457600080fd5b50565b60008135905061101681610ff0565b92915050565b60006020828403121561103257611031610ab5565b5b600061104084828501611007565b91505092915050565b600082825260208201905092915050565b7f4e6f74207461736b206f776e6572000000000000000000000000000000000000600082015250565b6000611090600e83611049565b915061109b8261105a565b602082019050919050565b600060208201905081810360008301526110bf81611083565b9050919050565b7f4e487b7100000000000000000000000000000000000000000000000000000000600052602260045260246000fd5b6000600282049050600182168061110d57607f821691505b6020821081036111205761111f6110c6565b5b50919050565b60008190508160005260206000209050919050565b60006020601f8301049050919050565b600082821b905092915050565b6000600883026111887fffffffffffffffffffffffffffffffffffffffffffffffffffffffffffffffff8261114b565b611192868361114b565b95508019841693508086168417925050509392505050565b6000819050919050565b60006111cf6111ca6111c584610abf565b6111aa565b610abf565b9050919050565b6000819050919050565b6111e9836111b4565b6111fd6111f5826111d6565b848454611158565b825550505050565b600090565b611212611205565b61121d8184846111e0565b505050565b5b818110156112415761123660008261120a565b600181019050611223565b5050565b601f8211156112865761125781611126565b6112608461113b565b8101602085101561126f578190505b61128361127b8561113b565b830182611222565b50505b505050565b600082821c905092915050565b60006112a96000198460080261128b565b1980831691505092915050565b60006112c28383611298565b9150826002028217905092915050565b6112db82610d1d565b67ffffffffffffffff8111156112f4576112f3610b10565b5b6112fe82546110f5565b611309828285611245565b600060209050601f83116001811461133c576000841561132a578287015190505b61133485826112b6565b86555061139c565b601f19841661134a86611126565b60005b828110156113725784890151825560018201915060208501945060208101905061134d565b8683101561138f578489015161138b601f891682611298565b8355505b6001600288020188555050505b505050505050565b7f4e6f207461736b7320666f756e6420666f72207468697320757365722e000000600082015250565b60006113da601d83611049565b91506113e5826113a4565b602082019050919050565b60006020820190508181036000830152611409816113cd565b9050919050565b7f4e487b7100000000000000000000000000000000000000000000000000000000600052603260045260246000fd5b7f4e487b7100000000000000000000000000000000000000000000000000000000600052601160045260246000fd5b600061147982610abf565b91507fffffffffffffffffffffffffffffffffffffffffffffffffffffffffffffffff82036114ab576114aa61143f565b5b60018201905091905056fea264697066735822122057946a1bf20c944e886c3931d17d5e9c5eeba1aa5d25a0b8903ba67468dfe06c64736f6c634300081c0033",
  "linkReferences": {},
  "deployedLinkReferences": {}
}